{
  "_format": "hh-sol-artifact-1",
  "contractName": "SubscriptionFactory",
  "sourceName": "contracts/SubscriptionFactory.sol",
  "abi": [
    {
      "inputs": [
        {
          "internalType": "address",
          "name": "_implementation",
          "type": "address"
        },
        {
          "internalType": "address",
          "name": "_platformTreasury",
          "type": "address"
        }
      ],
      "stateMutability": "nonpayable",
      "type": "constructor"
    },
    {
      "inputs": [],
      "name": "FailedDeployment",
      "type": "error"
    },
    {
      "inputs": [
        {
          "internalType": "uint256",
          "name": "balance",
          "type": "uint256"
        },
        {
          "internalType": "uint256",
          "name": "needed",
          "type": "uint256"
        }
      ],
      "name": "InsufficientBalance",
      "type": "error"
    },
    {
      "anonymous": false,
      "inputs": [
        {
          "indexed": true,
          "internalType": "address",
          "name": "creator",
          "type": "address"
        },
        {
          "indexed": false,
          "internalType": "address",
          "name": "profileAddress",
          "type": "address"
        }
      ],
      "name": "ProfileCreated",
      "type": "event"
    },
    {
      "inputs": [
        {
          "internalType": "address",
          "name": "_paymentToken",
          "type": "address"
        }
      ],
      "name": "createProfile",
      "outputs": [
        {
          "internalType": "address",
          "name": "",
          "type": "address"
        }
      ],
      "stateMutability": "nonpayable",
      "type": "function"
    },
    {
      "inputs": [
        {
          "internalType": "address",
          "name": "",
          "type": "address"
        },
        {
          "internalType": "uint256",
          "name": "",
          "type": "uint256"
        }
      ],
      "name": "creatorContracts",
      "outputs": [
        {
          "internalType": "address",
          "name": "",
          "type": "address"
        }
      ],
      "stateMutability": "view",
      "type": "function"
    },
    {
      "inputs": [
        {
          "internalType": "address",
          "name": "_creator",
          "type": "address"
        }
      ],
      "name": "getCreatorProfiles",
      "outputs": [
        {
          "internalType": "address[]",
          "name": "",
          "type": "address[]"
        }
      ],
      "stateMutability": "view",
      "type": "function"
    },
    {
      "inputs": [
        {
          "internalType": "address",
          "name": "_creator",
          "type": "address"
        }
      ],
      "name": "getProfile",
      "outputs": [
        {
          "internalType": "address",
          "name": "",
          "type": "address"
        }
      ],
      "stateMutability": "view",
      "type": "function"
    },
    {
      "inputs": [],
      "name": "implementation",
      "outputs": [
        {
          "internalType": "address",
          "name": "",
          "type": "address"
        }
      ],
      "stateMutability": "view",
      "type": "function"
    },
    {
      "inputs": [],
      "name": "platformTreasury",
      "outputs": [
        {
          "internalType": "address",
          "name": "",
          "type": "address"
        }
      ],
      "stateMutability": "view",
      "type": "function"
    }
  ],
  "bytecode": "0x60a060405234801561001057600080fd5b506040516105bc3803806105bc83398101604081905261002f91610073565b6001600160a01b03918216608052600180546001600160a01b031916919092161790556100a6565b80516001600160a01b038116811461006e57600080fd5b919050565b6000806040838503121561008657600080fd5b61008f83610057565b915061009d60208401610057565b90509250929050565b6080516104f56100c760003960008181609c015261023501526104f56000f3fe608060405234801561001057600080fd5b50600436106100625760003560e01c80630f53a470146100675780635c60da1b14610097578063801ba85b146100be578063cc744993146100de578063e138818c146100f1578063f536c52014610104575b600080fd5b61007a610075366004610410565b610117565b6040516001600160a01b0390911681526020015b60405180910390f35b61007a7f000000000000000000000000000000000000000000000000000000000000000081565b6100d16100cc366004610410565b610181565b60405161008e9190610432565b61007a6100ec36600461047f565b6101f5565b60015461007a906001600160a01b031681565b61007a610112366004610410565b61022d565b6001600160a01b03811660009081526020819052604081205415610179576001600160a01b0382166000908152602081905260408120805490919061015e5761015e6104a9565b6000918252602090912001546001600160a01b031692915050565b506000919050565b6001600160a01b038116600090815260208181526040918290208054835181840281018401909452808452606093928301828280156101e957602002820191906000526020600020905b81546001600160a01b031681526001909101906020018083116101cb575b50505050509050919050565b6000602052816000526040600020818154811061021157600080fd5b6000918252602090912001546001600160a01b03169150829050565b6000806102627f00000000000000000000000000000000000000000000000000000000000000006001600160a01b0316610347565b60015460405163c0c53b8b60e01b81523360048201526001600160a01b038681166024830152918216604482015291925082169063c0c53b8b90606401600060405180830381600087803b1580156102b957600080fd5b505af11580156102cd573d6000803e3d6000fd5b50503360008181526020818152604080832080546001810182559084529282902090920180546001600160a01b0319166001600160a01b03881690811790915591519182529193507f0e3805ab5ed81d70cc14ca89a9d933b5cb074fe2cd9a0c48c3c4a6f404304bbc92500160405180910390a292915050565b600061035482600061035a565b92915050565b60008147101561038a5760405163cf47918160e01b81524760048201526024810183905260440160405180910390fd5b763d602d80600a3d3981f3363d3d373d3d3d363d730000008360601b60e81c176000526e5af43d82803e903d91602b57fd5bf38360781b176020526037600983f090506001600160a01b0381166103545760405163b06ebf3d60e01b815260040160405180910390fd5b80356001600160a01b038116811461040b57600080fd5b919050565b60006020828403121561042257600080fd5b61042b826103f4565b9392505050565b6020808252825182820181905260009190848201906040850190845b818110156104735783516001600160a01b03168352928401929184019160010161044e565b50909695505050505050565b6000806040838503121561049257600080fd5b61049b836103f4565b946020939093013593505050565b634e487b7160e01b600052603260045260246000fdfea264697066735822122081f30af7f5780c1d6d420e59c2bdd6596ae191f7afe9da87fa3b52467563031f64736f6c63430008140033",
  "linkReferences": {},
  "deployedLinkReferences": {}
}