{
  "_format": "hh-sol-artifact-1",
  "contractName": "SubscriptionFactory",
  "sourceName": "contracts/SubscriptionFactory.sol",
  "abi": [
    {
      "inputs": [
        {
          "internalType": "address",
          "name": "_implementation",
          "type": "address"
        },
        {
          "internalType": "address",
          "name": "_platformTreasury",
          "type": "address"
        },
        {
          "internalType": "address",
          "name": "_dex",
          "type": "address"
        }
      ],
      "stateMutability": "nonpayable",
      "type": "constructor"
    },
    {
      "inputs": [],
      "name": "FailedDeployment",
      "type": "error"
    },
    {
      "inputs": [
        {
          "internalType": "uint256",
          "name": "balance",
          "type": "uint256"
        },
        {
          "internalType": "uint256",
          "name": "needed",
          "type": "uint256"
        }
      ],
      "name": "InsufficientBalance",
      "type": "error"
    },
    {
      "anonymous": false,
      "inputs": [
        {
          "indexed": true,
          "internalType": "address",
          "name": "creator",
          "type": "address"
        },
        {
          "indexed": false,
          "internalType": "address",
          "name": "profileAddress",
          "type": "address"
        }
      ],
      "name": "ProfileCreated",
      "type": "event"
    },
    {
      "inputs": [
        {
          "internalType": "address",
          "name": "_paymentToken",
          "type": "address"
        }
      ],
      "name": "createProfile",
      "outputs": [
        {
          "internalType": "address",
          "name": "",
          "type": "address"
        }
      ],
      "stateMutability": "nonpayable",
      "type": "function"
    },
    {
      "inputs": [
        {
          "internalType": "address",
          "name": "",
          "type": "address"
        },
        {
          "internalType": "uint256",
          "name": "",
          "type": "uint256"
        }
      ],
      "name": "creatorContracts",
      "outputs": [
        {
          "internalType": "address",
          "name": "",
          "type": "address"
        }
      ],
      "stateMutability": "view",
      "type": "function"
    },
    {
      "inputs": [],
      "name": "dex",
      "outputs": [
        {
          "internalType": "address",
          "name": "",
          "type": "address"
        }
      ],
      "stateMutability": "view",
      "type": "function"
    },
    {
      "inputs": [
        {
          "internalType": "address",
          "name": "_creator",
          "type": "address"
        }
      ],
      "name": "getCreatorProfiles",
      "outputs": [
        {
          "internalType": "address[]",
          "name": "",
          "type": "address[]"
        }
      ],
      "stateMutability": "view",
      "type": "function"
    },
    {
      "inputs": [
        {
          "internalType": "address",
          "name": "_creator",
          "type": "address"
        }
      ],
      "name": "getProfile",
      "outputs": [
        {
          "internalType": "address",
          "name": "",
          "type": "address"
        }
      ],
      "stateMutability": "view",
      "type": "function"
    },
    {
      "inputs": [],
      "name": "implementation",
      "outputs": [
        {
          "internalType": "address",
          "name": "",
          "type": "address"
        }
      ],
      "stateMutability": "view",
      "type": "function"
    },
    {
      "inputs": [],
      "name": "platformTreasury",
      "outputs": [
        {
          "internalType": "address",
          "name": "",
          "type": "address"
        }
      ],
      "stateMutability": "view",
      "type": "function"
    }
  ],
  "bytecode": "0x60a060405234801561001057600080fd5b5060405161061338038061061383398101604081905261002f91610081565b6001600160a01b03928316608052600180549284166001600160a01b0319938416179055600280549190931691161790556100c4565b80516001600160a01b038116811461007c57600080fd5b919050565b60008060006060848603121561009657600080fd5b61009f84610065565b92506100ad60208501610065565b91506100bb60408501610065565b90509250925092565b60805161052e6100e56000396000818160b70152610263015261052e6000f3fe608060405234801561001057600080fd5b506004361061007d5760003560e01c8063801ba85b1161005b578063801ba85b146100ec578063cc7449931461010c578063e138818c1461011f578063f536c5201461013257600080fd5b80630f53a470146100825780635c60da1b146100b2578063692058c2146100d9575b600080fd5b610095610090366004610449565b610145565b6040516001600160a01b0390911681526020015b60405180910390f35b6100957f000000000000000000000000000000000000000000000000000000000000000081565b600254610095906001600160a01b031681565b6100ff6100fa366004610449565b6101af565b6040516100a9919061046b565b61009561011a3660046104b8565b610223565b600154610095906001600160a01b031681565b610095610140366004610449565b61025b565b6001600160a01b038116600090815260208190526040812054156101a7576001600160a01b0382166000908152602081905260408120805490919061018c5761018c6104e2565b6000918252602090912001546001600160a01b031692915050565b506000919050565b6001600160a01b0381166000908152602081815260409182902080548351818402810184019094528084526060939283018282801561021757602002820191906000526020600020905b81546001600160a01b031681526001909101906020018083116101f9575b50505050509050919050565b6000602052816000526040600020818154811061023f57600080fd5b6000918252602090912001546001600160a01b03169150829050565b6000806102907f00000000000000000000000000000000000000000000000000000000000000006001600160a01b0316610380565b600154600254604051637c643b2f60e11b81523360048201526001600160a01b0387811660248301529283166044820152908216606482015291925082169063f8c8765e90608401600060405180830381600087803b1580156102f257600080fd5b505af1158015610306573d6000803e3d6000fd5b50503360008181526020818152604080832080546001810182559084529282902090920180546001600160a01b0319166001600160a01b03881690811790915591519182529193507f0e3805ab5ed81d70cc14ca89a9d933b5cb074fe2cd9a0c48c3c4a6f404304bbc92500160405180910390a292915050565b600061038d826000610393565b92915050565b6000814710156103c35760405163cf47918160e01b81524760048201526024810183905260440160405180910390fd5b763d602d80600a3d3981f3363d3d373d3d3d363d730000008360601b60e81c176000526e5af43d82803e903d91602b57fd5bf38360781b176020526037600983f090506001600160a01b03811661038d5760405163b06ebf3d60e01b815260040160405180910390fd5b80356001600160a01b038116811461044457600080fd5b919050565b60006020828403121561045b57600080fd5b6104648261042d565b9392505050565b6020808252825182820181905260009190848201906040850190845b818110156104ac5783516001600160a01b031683529284019291840191600101610487565b50909695505050505050565b600080604083850312156104cb57600080fd5b6104d48361042d565b946020939093013593505050565b634e487b7160e01b600052603260045260246000fdfea264697066735822122059901964cae35f22a44b44d73d3822fc6c9e2a78f2df9f8f5b783278ed33f52364736f6c63430008140033",
  "linkReferences": {},
  "deployedLinkReferences": {}
}