{
  "_format": "hh-sol-artifact-1",
  "contractName": "SubscriptionContract",
  "sourceName": "contracts/SubscriptionContract.sol",
  "abi": [
    {
      "inputs": [],
      "stateMutability": "nonpayable",
      "type": "constructor"
    },
    {
      "inputs": [],
      "name": "InvalidInitialization",
      "type": "error"
    },
    {
      "inputs": [],
      "name": "NotInitializing",
      "type": "error"
    },
    {
      "inputs": [
        {
          "internalType": "address",
          "name": "owner",
          "type": "address"
        }
      ],
      "name": "OwnableInvalidOwner",
      "type": "error"
    },
    {
      "inputs": [
        {
          "internalType": "address",
          "name": "account",
          "type": "address"
        }
      ],
      "name": "OwnableUnauthorizedAccount",
      "type": "error"
    },
    {
      "inputs": [],
      "name": "ReentrancyGuardReentrantCall",
      "type": "error"
    },
    {
      "inputs": [
        {
          "internalType": "address",
          "name": "token",
          "type": "address"
        }
      ],
      "name": "SafeERC20FailedOperation",
      "type": "error"
    },
    {
      "anonymous": false,
      "inputs": [
        {
          "indexed": false,
          "internalType": "uint256",
          "name": "amount",
          "type": "uint256"
        }
      ],
      "name": "FeePaid",
      "type": "event"
    },
    {
      "anonymous": false,
      "inputs": [
        {
          "indexed": false,
          "internalType": "uint64",
          "name": "version",
          "type": "uint64"
        }
      ],
      "name": "Initialized",
      "type": "event"
    },
    {
      "anonymous": false,
      "inputs": [
        {
          "indexed": true,
          "internalType": "address",
          "name": "previousOwner",
          "type": "address"
        },
        {
          "indexed": true,
          "internalType": "address",
          "name": "newOwner",
          "type": "address"
        }
      ],
      "name": "OwnershipTransferred",
      "type": "event"
    },
    {
      "anonymous": false,
      "inputs": [
        {
          "indexed": true,
          "internalType": "address",
          "name": "subscriber",
          "type": "address"
        },
        {
          "indexed": false,
          "internalType": "uint256",
          "name": "tierId",
          "type": "uint256"
        },
        {
          "indexed": false,
          "internalType": "uint256",
          "name": "expiry",
          "type": "uint256"
        }
      ],
      "name": "Subscribed",
      "type": "event"
    },
    {
      "anonymous": false,
      "inputs": [
        {
          "indexed": false,
          "internalType": "uint256",
          "name": "tierId",
          "type": "uint256"
        },
        {
          "indexed": false,
          "internalType": "string",
          "name": "name",
          "type": "string"
        },
        {
          "indexed": false,
          "internalType": "uint256",
          "name": "price",
          "type": "uint256"
        },
        {
          "indexed": false,
          "internalType": "uint256",
          "name": "duration",
          "type": "uint256"
        }
      ],
      "name": "TierCreated",
      "type": "event"
    },
    {
      "anonymous": false,
      "inputs": [
        {
          "indexed": false,
          "internalType": "uint256",
          "name": "amount",
          "type": "uint256"
        }
      ],
      "name": "Withdrawn",
      "type": "event"
    },
    {
      "inputs": [],
      "name": "PLATFORM_FEE_BPS",
      "outputs": [
        {
          "internalType": "uint256",
          "name": "",
          "type": "uint256"
        }
      ],
      "stateMutability": "view",
      "type": "function"
    },
    {
      "inputs": [
        {
          "internalType": "string",
          "name": "_name",
          "type": "string"
        },
        {
          "internalType": "uint256",
          "name": "_price",
          "type": "uint256"
        },
        {
          "internalType": "uint256",
          "name": "_duration",
          "type": "uint256"
        }
      ],
      "name": "createTier",
      "outputs": [],
      "stateMutability": "nonpayable",
      "type": "function"
    },
    {
      "inputs": [],
      "name": "dex",
      "outputs": [
        {
          "internalType": "address",
          "name": "",
          "type": "address"
        }
      ],
      "stateMutability": "view",
      "type": "function"
    },
    {
      "inputs": [],
      "name": "getTiers",
      "outputs": [
        {
          "components": [
            {
              "internalType": "string",
              "name": "name",
              "type": "string"
            },
            {
              "internalType": "uint256",
              "name": "price",
              "type": "uint256"
            },
            {
              "internalType": "uint256",
              "name": "duration",
              "type": "uint256"
            },
            {
              "internalType": "bool",
              "name": "isActive",
              "type": "bool"
            }
          ],
          "internalType": "struct SubscriptionContract.Tier[]",
          "name": "",
          "type": "tuple[]"
        }
      ],
      "stateMutability": "view",
      "type": "function"
    },
    {
      "inputs": [
        {
          "internalType": "address",
          "name": "_owner",
          "type": "address"
        },
        {
          "internalType": "address",
          "name": "_paymentToken",
          "type": "address"
        },
        {
          "internalType": "address",
          "name": "_platformTreasury",
          "type": "address"
        },
        {
          "internalType": "address",
          "name": "_dex",
          "type": "address"
        }
      ],
      "name": "initialize",
      "outputs": [],
      "stateMutability": "nonpayable",
      "type": "function"
    },
    {
      "inputs": [
        {
          "internalType": "address",
          "name": "_user",
          "type": "address"
        }
      ],
      "name": "isMember",
      "outputs": [
        {
          "internalType": "bool",
          "name": "",
          "type": "bool"
        }
      ],
      "stateMutability": "view",
      "type": "function"
    },
    {
      "inputs": [
        {
          "internalType": "address",
          "name": "",
          "type": "address"
        }
      ],
      "name": "memberships",
      "outputs": [
        {
          "internalType": "uint256",
          "name": "expiry",
          "type": "uint256"
        },
        {
          "internalType": "uint256",
          "name": "tierId",
          "type": "uint256"
        }
      ],
      "stateMutability": "view",
      "type": "function"
    },
    {
      "inputs": [],
      "name": "owner",
      "outputs": [
        {
          "internalType": "address",
          "name": "",
          "type": "address"
        }
      ],
      "stateMutability": "view",
      "type": "function"
    },
    {
      "inputs": [],
      "name": "paymentToken",
      "outputs": [
        {
          "internalType": "contract IERC20",
          "name": "",
          "type": "address"
        }
      ],
      "stateMutability": "view",
      "type": "function"
    },
    {
      "inputs": [],
      "name": "platformTreasury",
      "outputs": [
        {
          "internalType": "address",
          "name": "",
          "type": "address"
        }
      ],
      "stateMutability": "view",
      "type": "function"
    },
    {
      "inputs": [],
      "name": "renounceOwnership",
      "outputs": [],
      "stateMutability": "nonpayable",
      "type": "function"
    },
    {
      "inputs": [
        {
          "internalType": "uint256",
          "name": "_tierId",
          "type": "uint256"
        }
      ],
      "name": "subscribe",
      "outputs": [],
      "stateMutability": "payable",
      "type": "function"
    },
    {
      "inputs": [
        {
          "internalType": "uint256",
          "name": "_tierId",
          "type": "uint256"
        },
        {
          "internalType": "address",
          "name": "_inputToken",
          "type": "address"
        },
        {
          "internalType": "uint128",
          "name": "_inputAmount",
          "type": "uint128"
        },
        {
          "internalType": "uint128",
          "name": "_minReceived",
          "type": "uint128"
        }
      ],
      "name": "subscribeWithToken",
      "outputs": [],
      "stateMutability": "nonpayable",
      "type": "function"
    },
    {
      "inputs": [
        {
          "internalType": "uint256",
          "name": "",
          "type": "uint256"
        }
      ],
      "name": "tiers",
      "outputs": [
        {
          "internalType": "string",
          "name": "name",
          "type": "string"
        },
        {
          "internalType": "uint256",
          "name": "price",
          "type": "uint256"
        },
        {
          "internalType": "uint256",
          "name": "duration",
          "type": "uint256"
        },
        {
          "internalType": "bool",
          "name": "isActive",
          "type": "bool"
        }
      ],
      "stateMutability": "view",
      "type": "function"
    },
    {
      "inputs": [
        {
          "internalType": "uint256",
          "name": "_tierId",
          "type": "uint256"
        }
      ],
      "name": "toggleTier",
      "outputs": [],
      "stateMutability": "nonpayable",
      "type": "function"
    },
    {
      "inputs": [
        {
          "internalType": "address",
          "name": "newOwner",
          "type": "address"
        }
      ],
      "name": "transferOwnership",
      "outputs": [],
      "stateMutability": "nonpayable",
      "type": "function"
    },
    {
      "inputs": [],
      "name": "withdraw",
      "outputs": [],
      "stateMutability": "nonpayable",
      "type": "function"
    }
  ],
  "bytecode": "0x608060405234801561001057600080fd5b5061001961001e565b6100d0565b7ff0c57e16840df040f15088dc2f81fe391c3923bec73e23a9662efc9c229c6a00805468010000000000000000900460ff161561006e5760405163f92ee8a960e01b815260040160405180910390fd5b80546001600160401b03908116146100cd5780546001600160401b0319166001600160401b0390811782556040519081527fc7f505b2f371ae2175ee4913f4499e1f2633a7b5936321eed1cdaeb6115181d29060200160405180910390a15b50565b611c9d806100df6000396000f3fe6080604052600436106100fe5760003560e01c8063715018a611610095578063a230c52411610064578063a230c524146102b5578063de170570146102fd578063e138818c1461031f578063f2fde38b1461033f578063f8c8765e1461035f57600080fd5b8063715018a61461022257806373d98799146102375780638c728c1b146102805780638da5cb5b146102a057600080fd5b80633013ce29116100d15780633013ce29146101915780633ccfd60b146101c9578063539aa77f146101de578063692058c21461020257600080fd5b8063039af9eb146101035780630f574ba71461013c578063151b40de146101515780631df6384914610171575b600080fd5b34801561010f57600080fd5b5061012361011e366004611701565b61037f565b6040516101339493929190611760565b60405180910390f35b61014f61014a366004611701565b61044c565b005b34801561015d57600080fd5b5061014f61016c3660046117a7565b610478565b34801561017d57600080fd5b5061014f61018c36600461189c565b610565565b34801561019d57600080fd5b506002546101b1906001600160a01b031681565b6040516001600160a01b039091168152602001610133565b3480156101d557600080fd5b5061014f6109f0565b3480156101ea57600080fd5b506101f46101f481565b604051908152602001610133565b34801561020e57600080fd5b506004546101b1906001600160a01b031681565b34801561022e57600080fd5b5061014f610df6565b34801561024357600080fd5b5061026b6102523660046118ed565b6001602081905260009182526040909120805491015482565b60408051928352602083019190915201610133565b34801561028c57600080fd5b5061014f61029b366004611701565b610e08565b3480156102ac57600080fd5b506101b1610eb5565b3480156102c157600080fd5b506102ed6102d03660046118ed565b6001600160a01b0316600090815260016020526040902054421090565b6040519015158152602001610133565b34801561030957600080fd5b50610312610ee3565b604051610133919061190f565b34801561032b57600080fd5b506003546101b1906001600160a01b031681565b34801561034b57600080fd5b5061014f61035a3660046118ed565b610ffd565b34801561036b57600080fd5b5061014f61037a36600461199c565b611038565b6000818154811061038f57600080fd5b90600052602060002090600402016000915090508060000180546103b2906119f0565b80601f01602080910402602001604051908101604052809291908181526020018280546103de906119f0565b801561042b5780601f106104005761010080835404028352916020019161042b565b820191906000526020600020905b81548152906001019060200180831161040e57829003601f168201915b50505050600183015460028401546003909401549293909290915060ff1684565b61045461117c565b61045e33826111b4565b6104756001600080516020611c4883398151915255565b50565b6104806113c3565b60408051608081018252848152602081018490529081018290526001606082018190526000805491820181558052815160049091027f290decd9548b62a8d60345a988386fc84ba6bc95484008f6362f93160ef3e563019081906104e49082611a78565b506020820151600182810191909155604083015160028301556060909201516003909101805460ff19169115159190911790556000547f0655289c4d9d7c45c2b83b18a45e3ce05f40710e413db2117ee045e2ab12cab29161054591611b4e565b8484846040516105589493929190611b61565b60405180910390a1505050565b61056d61117c565b6004546001600160a01b03166105bf5760405162461bcd60e51b8152602060048201526012602482015271111156081b9bdd0818dbdb999a59dd5c995960721b60448201526064015b60405180910390fd5b6002546001600160a01b03166106255760405162461bcd60e51b815260206004820152602560248201527f4e6174697665207061796d656e74206e6f7420737570706f7274656420666f72604482015264020737761760dc1b60648201526084016105b6565b6002546001600160a01b03908116908416036106935760405162461bcd60e51b815260206004820152602760248201527f557365207374616e646172642073756273637269626520666f72207061796d65604482015266373a2a37b5b2b760c91b60648201526084016105b6565b60008085815481106106a7576106a7611b8d565b90600052602060002090600402016040518060800160405290816000820180546106d0906119f0565b80601f01602080910402602001604051908101604052809291908181526020018280546106fc906119f0565b80156107495780601f1061071e57610100808354040283529160200191610749565b820191906000526020600020905b81548152906001019060200180831161072c57829003601f168201915b5050509183525050600182015460208201526002820154604082015260039091015460ff1615156060918201528101519091506107bd5760405162461bcd60e51b815260206004820152601260248201527154696572206973206e6f742061637469766560701b60448201526064016105b6565b6040516323b872dd60e01b81523360048201523060248201526001600160801b03841660448201526001600160a01b038516906323b872dd906064016020604051808303816000875af1158015610818573d6000803e3d6000fd5b505050506040513d601f19601f8201168201806040525081019061083c9190611ba3565b506004805460405163095ea7b360e01b81526001600160a01b03918216928101929092526001600160801b038516602483015285169063095ea7b3906044016020604051808303816000875af115801561089a573d6000803e3d6000fd5b505050506040513d601f19601f820116820180604052508101906108be9190611ba3565b506004805460025460405163f8856c0f60e01b81526001600160a01b038881169482019490945290831660248201526001600160801b038087166044830152851660648201526000929091169063f8856c0f906084016020604051808303816000875af1158015610933573d6000803e3d6000fd5b505050506040513d601f19601f820116820180604052508101906109579190611bc5565b90508160200151816001600160801b031610156109c65760405162461bcd60e51b815260206004820152602760248201527f53776170206f757470757420696e73756666696369656e7420666f72207469656044820152667220707269636560c81b60648201526084016105b6565b6109d13387846113f5565b50506109ea6001600080516020611c4883398151915255565b50505050565b6109f86113c3565b610a0061117c565b6002546001600160a01b0316610c3e574780610a555760405162461bcd60e51b81526020600482015260146024820152734e6f2066756e647320746f20776974686472617760601b60448201526064016105b6565b60035460009082906001600160a01b031615610b6657612710610a7a6101f485611be2565b610a849190611bf9565b9150610a908284611b4e565b90508115610b66576003546040516000916001600160a01b03169084908381818185875af1925050503d8060008114610ae5576040519150601f19603f3d011682016040523d82523d6000602084013e610aea565b606091505b5050905080610b315760405162461bcd60e51b8152602060048201526013602482015272119959481d1c985b9cd9995c8819985a5b1959606a1b60448201526064016105b6565b6040518381527f69e27f80547602d16208b028c44d20f25956e1fb7d0f51d62aa02f392426f3719060200160405180910390a1505b6000610b70610eb5565b6001600160a01b03168260405160006040518083038185875af1925050503d8060008114610bba576040519150601f19603f3d011682016040523d82523d6000602084013e610bbf565b606091505b5050905080610c025760405162461bcd60e51b815260206004820152600f60248201526e15da5d1a191c985dc819985a5b1959608a1b60448201526064016105b6565b6040518281527f430648de173157e069201c943adb2d4e340e7cf5b27b1b09c9cb852f03d63b569060200160405180910390a150505050610ddd565b6002546040516370a0823160e01b81523060048201526000916001600160a01b0316906370a0823190602401602060405180830381865afa158015610c87573d6000803e3d6000fd5b505050506040513d601f19601f82011682018060405250810190610cab9190611c1b565b905060008111610cf45760405162461bcd60e51b81526020600482015260146024820152734e6f2066756e647320746f20776974686472617760601b60448201526064016105b6565b60035460009082906001600160a01b031615610d8857612710610d196101f485611be2565b610d239190611bf9565b9150610d2f8284611b4e565b90508115610d8857600354600254610d54916001600160a01b039182169116846114ec565b6040518281527f69e27f80547602d16208b028c44d20f25956e1fb7d0f51d62aa02f392426f3719060200160405180910390a15b610da6610d93610eb5565b6002546001600160a01b031690836114ec565b6040518181527f430648de173157e069201c943adb2d4e340e7cf5b27b1b09c9cb852f03d63b569060200160405180910390a15050505b610df46001600080516020611c4883398151915255565b565b610dfe6113c3565b610df4600061154b565b610e106113c3565b6000548110610e505760405162461bcd60e51b815260206004820152600c60248201526b24b73b30b634b2103a34b2b960a11b60448201526064016105b6565b60008181548110610e6357610e63611b8d565b60009182526020822060036004909202010154815460ff90911615919083908110610e9057610e90611b8d565b60009182526020909120600490910201600301805460ff191691151591909117905550565b7f9016d09d72d40fdae2fd8ceac6b6234c7706214fd39c1cd1e609a0528c199300546001600160a01b031690565b60606000805480602002602001604051908101604052809291908181526020016000905b82821015610ff45783829060005260206000209060040201604051806080016040529081600082018054610f3a906119f0565b80601f0160208091040260200160405190810160405280929190818152602001828054610f66906119f0565b8015610fb35780601f10610f8857610100808354040283529160200191610fb3565b820191906000526020600020905b815481529060010190602001808311610f9657829003601f168201915b50505091835250506001828101546020808401919091526002840154604084015260039093015460ff16151560609092019190915291835292019101610f07565b50505050905090565b6110056113c3565b6001600160a01b03811661102f57604051631e4fbdf760e01b8152600060048201526024016105b6565b6104758161154b565b60006110426115bc565b805490915060ff600160401b820416159067ffffffffffffffff1660008115801561106a5750825b905060008267ffffffffffffffff1660011480156110875750303b155b905081158015611095575080155b156110b35760405163f92ee8a960e01b815260040160405180910390fd5b845467ffffffffffffffff1916600117855583156110dd57845460ff60401b1916600160401b1785555b6110e6896115e7565b6110ee6115f8565b600280546001600160a01b03808b166001600160a01b031992831617909255600380548a84169083161790556004805492891692909116919091179055831561117157845460ff60401b19168555604051600181527fc7f505b2f371ae2175ee4913f4499e1f2633a7b5936321eed1cdaeb6115181d29060200160405180910390a15b505050505050505050565b600080516020611c488339815191528054600119016111ae57604051633ee5aeb560e01b815260040160405180910390fd5b60029055565b60005481106111f45760405162461bcd60e51b815260206004820152600c60248201526b24b73b30b634b2103a34b2b960a11b60448201526064016105b6565b600080828154811061120857611208611b8d565b9060005260206000209060040201604051806080016040529081600082018054611231906119f0565b80601f016020809104026020016040519081016040528092919081815260200182805461125d906119f0565b80156112aa5780601f1061127f576101008083540402835291602001916112aa565b820191906000526020600020905b81548152906001019060200180831161128d57829003601f168201915b5050509183525050600182015460208201526002820154604082015260039091015460ff16151560609182015281015190915061131e5760405162461bcd60e51b815260206004820152601260248201527154696572206973206e6f742061637469766560701b60448201526064016105b6565b6002546001600160a01b031661137e5780602001513410156113795760405162461bcd60e51b8152602060048201526014602482015273125b9cdd59999a58da595b9d081c185e5b595b9d60621b60448201526064016105b6565b61139f565b602081015160025461139f916001600160a01b039091169085903090611608565b6113aa8383836113f5565b505050565b6001600080516020611c4883398151915255565b336113cc610eb5565b6001600160a01b031614610df45760405163118cdaa760e01b81523360048201526024016105b6565b6001600160a01b0383166000908152600160205260409020805442111561142c5760408201516114259042611c34565b8155611493565b8054604083015161143d9082611c34565b101561147f5760405162461bcd60e51b815260206004820152601160248201527013dd995c999b1bddc819195d1958dd1959607a1b60448201526064016105b6565b604082015181546114909190611c34565b81555b6001810183905580546040516001600160a01b038616917ff94991dcbea6e8ac439cbc93bd9c62a4d39f04e0ad656df9a703f13552c2787f916114de91878252602082015260400190565b60405180910390a250505050565b6040516001600160a01b038381166024830152604482018390526113aa91859182169063a9059cbb906064015b604051602081830303815290604052915060e01b6020820180516001600160e01b038381831617835250505050611641565b7f9016d09d72d40fdae2fd8ceac6b6234c7706214fd39c1cd1e609a0528c19930080546001600160a01b031981166001600160a01b03848116918217845560405192169182907f8be0079c531659141344cd1fd0a4f28419497f9722a3daafe3b4186f6b6457e090600090a3505050565b6000807ff0c57e16840df040f15088dc2f81fe391c3923bec73e23a9662efc9c229c6a005b92915050565b6115ef6116b2565b610475816116d7565b6116006116b2565b610df46116df565b6040516001600160a01b0384811660248301528381166044830152606482018390526109ea9186918216906323b872dd90608401611519565b600080602060008451602086016000885af180611664576040513d6000823e3d81fd5b50506000513d9150811561167c578060011415611689565b6001600160a01b0384163b155b156109ea57604051635274afe760e01b81526001600160a01b03851660048201526024016105b6565b6116ba6116e7565b610df457604051631afcd79f60e31b815260040160405180910390fd5b6110056116b2565b6113af6116b2565b60006116f16115bc565b54600160401b900460ff16919050565b60006020828403121561171357600080fd5b5035919050565b6000815180845260005b8181101561174057602081850181015186830182015201611724565b506000602082860101526020601f19601f83011685010191505092915050565b608081526000611773608083018761171a565b60208301959095525060408101929092521515606090910152919050565b634e487b7160e01b600052604160045260246000fd5b6000806000606084860312156117bc57600080fd5b833567ffffffffffffffff808211156117d457600080fd5b818601915086601f8301126117e857600080fd5b8135818111156117fa576117fa611791565b604051601f8201601f19908116603f0116810190838211818310171561182257611822611791565b8160405282815289602084870101111561183b57600080fd5b82602086016020830137600060208483010152809750505050505060208401359150604084013590509250925092565b80356001600160a01b038116811461188257600080fd5b919050565b6001600160801b038116811461047557600080fd5b600080600080608085870312156118b257600080fd5b843593506118c26020860161186b565b925060408501356118d281611887565b915060608501356118e281611887565b939692955090935050565b6000602082840312156118ff57600080fd5b6119088261186b565b9392505050565b60006020808301818452808551808352604092508286019150828160051b87010184880160005b8381101561198e57603f1989840301855281516080815181865261195c8287018261171a565b838b0151878c0152898401518a8801526060938401511515939096019290925250509386019390860190600101611936565b509098975050505050505050565b600080600080608085870312156119b257600080fd5b6119bb8561186b565b93506119c96020860161186b565b92506119d76040860161186b565b91506119e56060860161186b565b905092959194509250565b600181811c90821680611a0457607f821691505b602082108103611a2457634e487b7160e01b600052602260045260246000fd5b50919050565b601f8211156113aa57600081815260208120601f850160051c81016020861015611a515750805b601f850160051c820191505b81811015611a7057828155600101611a5d565b505050505050565b815167ffffffffffffffff811115611a9257611a92611791565b611aa681611aa084546119f0565b84611a2a565b602080601f831160018114611adb5760008415611ac35750858301515b600019600386901b1c1916600185901b178555611a70565b600085815260208120601f198616915b82811015611b0a57888601518255948401946001909101908401611aeb565b5085821015611b285787850151600019600388901b60f8161c191681555b5050505050600190811b01905550565b634e487b7160e01b600052601160045260246000fd5b818103818111156115e1576115e1611b38565b848152608060208201526000611b7a608083018661171a565b6040830194909452506060015292915050565b634e487b7160e01b600052603260045260246000fd5b600060208284031215611bb557600080fd5b8151801515811461190857600080fd5b600060208284031215611bd757600080fd5b815161190881611887565b80820281158282048414176115e1576115e1611b38565b600082611c1657634e487b7160e01b600052601260045260246000fd5b500490565b600060208284031215611c2d57600080fd5b5051919050565b808201808211156115e1576115e1611b3856fe9b779b17422d0df92223018b32b4d1fa46e071723d6817e2486d003becc55f00a26469706673582212209e7327f54785fe0d37866b17d4bcc9380e675fd910f8b2ec40e45640c16877b464736f6c63430008140033",
  "linkReferences": {},
  "deployedLinkReferences": {}
}