{
  "_format": "hh-sol-artifact-1",
  "contractName": "SubscriptionContract",
  "sourceName": "contracts/SubscriptionContract.sol",
  "abi": [
    {
      "inputs": [],
      "stateMutability": "nonpayable",
      "type": "constructor"
    },
    {
      "inputs": [],
      "name": "InvalidInitialization",
      "type": "error"
    },
    {
      "inputs": [],
      "name": "NotInitializing",
      "type": "error"
    },
    {
      "inputs": [
        {
          "internalType": "address",
          "name": "owner",
          "type": "address"
        }
      ],
      "name": "OwnableInvalidOwner",
      "type": "error"
    },
    {
      "inputs": [
        {
          "internalType": "address",
          "name": "account",
          "type": "address"
        }
      ],
      "name": "OwnableUnauthorizedAccount",
      "type": "error"
    },
    {
      "inputs": [
        {
          "internalType": "address",
          "name": "token",
          "type": "address"
        }
      ],
      "name": "SafeERC20FailedOperation",
      "type": "error"
    },
    {
      "anonymous": false,
      "inputs": [
        {
          "indexed": false,
          "internalType": "uint256",
          "name": "amount",
          "type": "uint256"
        }
      ],
      "name": "FeePaid",
      "type": "event"
    },
    {
      "anonymous": false,
      "inputs": [
        {
          "indexed": false,
          "internalType": "uint64",
          "name": "version",
          "type": "uint64"
        }
      ],
      "name": "Initialized",
      "type": "event"
    },
    {
      "anonymous": false,
      "inputs": [
        {
          "indexed": true,
          "internalType": "address",
          "name": "previousOwner",
          "type": "address"
        },
        {
          "indexed": true,
          "internalType": "address",
          "name": "newOwner",
          "type": "address"
        }
      ],
      "name": "OwnershipTransferred",
      "type": "event"
    },
    {
      "anonymous": false,
      "inputs": [
        {
          "indexed": true,
          "internalType": "address",
          "name": "subscriber",
          "type": "address"
        },
        {
          "indexed": false,
          "internalType": "uint256",
          "name": "tierId",
          "type": "uint256"
        },
        {
          "indexed": false,
          "internalType": "uint256",
          "name": "expiry",
          "type": "uint256"
        }
      ],
      "name": "Subscribed",
      "type": "event"
    },
    {
      "anonymous": false,
      "inputs": [
        {
          "indexed": false,
          "internalType": "uint256",
          "name": "tierId",
          "type": "uint256"
        },
        {
          "indexed": false,
          "internalType": "string",
          "name": "name",
          "type": "string"
        },
        {
          "indexed": false,
          "internalType": "uint256",
          "name": "price",
          "type": "uint256"
        },
        {
          "indexed": false,
          "internalType": "uint256",
          "name": "duration",
          "type": "uint256"
        }
      ],
      "name": "TierCreated",
      "type": "event"
    },
    {
      "anonymous": false,
      "inputs": [
        {
          "indexed": false,
          "internalType": "uint256",
          "name": "amount",
          "type": "uint256"
        }
      ],
      "name": "Withdrawn",
      "type": "event"
    },
    {
      "inputs": [],
      "name": "PLATFORM_FEE_BPS",
      "outputs": [
        {
          "internalType": "uint256",
          "name": "",
          "type": "uint256"
        }
      ],
      "stateMutability": "view",
      "type": "function"
    },
    {
      "inputs": [
        {
          "internalType": "string",
          "name": "_name",
          "type": "string"
        },
        {
          "internalType": "uint256",
          "name": "_price",
          "type": "uint256"
        },
        {
          "internalType": "uint256",
          "name": "_duration",
          "type": "uint256"
        }
      ],
      "name": "createTier",
      "outputs": [],
      "stateMutability": "nonpayable",
      "type": "function"
    },
    {
      "inputs": [],
      "name": "getTiers",
      "outputs": [
        {
          "components": [
            {
              "internalType": "string",
              "name": "name",
              "type": "string"
            },
            {
              "internalType": "uint256",
              "name": "price",
              "type": "uint256"
            },
            {
              "internalType": "uint256",
              "name": "duration",
              "type": "uint256"
            },
            {
              "internalType": "bool",
              "name": "isActive",
              "type": "bool"
            }
          ],
          "internalType": "struct SubscriptionContract.Tier[]",
          "name": "",
          "type": "tuple[]"
        }
      ],
      "stateMutability": "view",
      "type": "function"
    },
    {
      "inputs": [
        {
          "internalType": "address",
          "name": "_owner",
          "type": "address"
        },
        {
          "internalType": "address",
          "name": "_paymentToken",
          "type": "address"
        },
        {
          "internalType": "address",
          "name": "_platformTreasury",
          "type": "address"
        }
      ],
      "name": "initialize",
      "outputs": [],
      "stateMutability": "nonpayable",
      "type": "function"
    },
    {
      "inputs": [
        {
          "internalType": "address",
          "name": "_user",
          "type": "address"
        }
      ],
      "name": "isMember",
      "outputs": [
        {
          "internalType": "bool",
          "name": "",
          "type": "bool"
        }
      ],
      "stateMutability": "view",
      "type": "function"
    },
    {
      "inputs": [
        {
          "internalType": "address",
          "name": "",
          "type": "address"
        }
      ],
      "name": "memberships",
      "outputs": [
        {
          "internalType": "uint256",
          "name": "expiry",
          "type": "uint256"
        },
        {
          "internalType": "uint256",
          "name": "tierId",
          "type": "uint256"
        }
      ],
      "stateMutability": "view",
      "type": "function"
    },
    {
      "inputs": [],
      "name": "owner",
      "outputs": [
        {
          "internalType": "address",
          "name": "",
          "type": "address"
        }
      ],
      "stateMutability": "view",
      "type": "function"
    },
    {
      "inputs": [],
      "name": "paymentToken",
      "outputs": [
        {
          "internalType": "contract IERC20",
          "name": "",
          "type": "address"
        }
      ],
      "stateMutability": "view",
      "type": "function"
    },
    {
      "inputs": [],
      "name": "platformTreasury",
      "outputs": [
        {
          "internalType": "address",
          "name": "",
          "type": "address"
        }
      ],
      "stateMutability": "view",
      "type": "function"
    },
    {
      "inputs": [],
      "name": "renounceOwnership",
      "outputs": [],
      "stateMutability": "nonpayable",
      "type": "function"
    },
    {
      "inputs": [
        {
          "internalType": "uint256",
          "name": "_tierId",
          "type": "uint256"
        }
      ],
      "name": "subscribe",
      "outputs": [],
      "stateMutability": "payable",
      "type": "function"
    },
    {
      "inputs": [
        {
          "internalType": "uint256",
          "name": "",
          "type": "uint256"
        }
      ],
      "name": "tiers",
      "outputs": [
        {
          "internalType": "string",
          "name": "name",
          "type": "string"
        },
        {
          "internalType": "uint256",
          "name": "price",
          "type": "uint256"
        },
        {
          "internalType": "uint256",
          "name": "duration",
          "type": "uint256"
        },
        {
          "internalType": "bool",
          "name": "isActive",
          "type": "bool"
        }
      ],
      "stateMutability": "view",
      "type": "function"
    },
    {
      "inputs": [
        {
          "internalType": "uint256",
          "name": "_tierId",
          "type": "uint256"
        }
      ],
      "name": "toggleTier",
      "outputs": [],
      "stateMutability": "nonpayable",
      "type": "function"
    },
    {
      "inputs": [
        {
          "internalType": "address",
          "name": "newOwner",
          "type": "address"
        }
      ],
      "name": "transferOwnership",
      "outputs": [],
      "stateMutability": "nonpayable",
      "type": "function"
    },
    {
      "inputs": [],
      "name": "withdraw",
      "outputs": [],
      "stateMutability": "nonpayable",
      "type": "function"
    }
  ],
  "bytecode": "0x608060405234801561001057600080fd5b5061001961001e565b6100d0565b7ff0c57e16840df040f15088dc2f81fe391c3923bec73e23a9662efc9c229c6a00805468010000000000000000900460ff161561006e5760405163f92ee8a960e01b815260040160405180910390fd5b80546001600160401b03908116146100cd5780546001600160401b0319166001600160401b0390811782556040519081527fc7f505b2f371ae2175ee4913f4499e1f2633a7b5936321eed1cdaeb6115181d29060200160405180910390a15b50565b6115b4806100df6000396000f3fe6080604052600436106100e85760003560e01c806373d987991161008a578063c0c53b8b11610059578063c0c53b8b146102a7578063de170570146102c7578063e138818c146102e9578063f2fde38b1461030957600080fd5b806373d98799146101e15780638c728c1b1461022a5780638da5cb5b1461024a578063a230c5241461025f57600080fd5b80633013ce29116100c65780633013ce291461015b5780633ccfd60b14610193578063539aa77f146101a8578063715018a6146101cc57600080fd5b8063039af9eb146100ed5780630f574ba714610126578063151b40de1461013b575b600080fd5b3480156100f957600080fd5b5061010d6101083660046110ee565b610329565b60405161011d949392919061114d565b60405180910390f35b6101396101343660046110ee565b6103f6565b005b34801561014757600080fd5b50610139610156366004611194565b610677565b34801561016757600080fd5b5060025461017b906001600160a01b031681565b6040516001600160a01b03909116815260200161011d565b34801561019f57600080fd5b50610139610764565b3480156101b457600080fd5b506101be6101f481565b60405190815260200161011d565b3480156101d857600080fd5b50610139610b41565b3480156101ed57600080fd5b506102156101fc366004611274565b6001602081905260009182526040909120805491015482565b6040805192835260208301919091520161011d565b34801561023657600080fd5b506101396102453660046110ee565b610b53565b34801561025657600080fd5b5061017b610c00565b34801561026b57600080fd5b5061029761027a366004611274565b6001600160a01b0316600090815260016020526040902054421090565b604051901515815260200161011d565b3480156102b357600080fd5b506101396102c2366004611296565b610c2e565b3480156102d357600080fd5b506102dc610d5c565b60405161011d91906112d9565b3480156102f557600080fd5b5060035461017b906001600160a01b031681565b34801561031557600080fd5b50610139610324366004611274565b610e76565b6000818154811061033957600080fd5b906000526020600020906004020160009150905080600001805461035c90611366565b80601f016020809104026020016040519081016040528092919081815260200182805461038890611366565b80156103d55780601f106103aa576101008083540402835291602001916103d5565b820191906000526020600020905b8154815290600101906020018083116103b857829003601f168201915b50505050600183015460028401546003909401549293909290915060ff1684565b600054811061043b5760405162461bcd60e51b815260206004820152600c60248201526b24b73b30b634b2103a34b2b960a11b60448201526064015b60405180910390fd5b600080828154811061044f5761044f6113a0565b906000526020600020906004020160405180608001604052908160008201805461047890611366565b80601f01602080910402602001604051908101604052809291908181526020018280546104a490611366565b80156104f15780601f106104c6576101008083540402835291602001916104f1565b820191906000526020600020905b8154815290600101906020018083116104d457829003601f168201915b5050509183525050600182015460208201526002820154604082015260039091015460ff1615156060918201528101519091506105655760405162461bcd60e51b815260206004820152601260248201527154696572206973206e6f742061637469766560701b6044820152606401610432565b6002546001600160a01b03166105c55780602001513410156105c05760405162461bcd60e51b8152602060048201526014602482015273125b9cdd59999a58da595b9d081c185e5b595b9d60621b6044820152606401610432565b6105e6565b60208101516002546105e6916001600160a01b039091169033903090610eb4565b336000908152600160205260409020805442111561061457604082015161060d90426113cc565b8155610628565b6040820151815461062591906113cc565b81555b60018101839055805460405133917ff94991dcbea6e8ac439cbc93bd9c62a4d39f04e0ad656df9a703f13552c2787f9161066a91878252602082015260400190565b60405180910390a2505050565b61067f610f21565b60408051608081018252848152602081018490529081018290526001606082018190526000805491820181558052815160049091027f290decd9548b62a8d60345a988386fc84ba6bc95484008f6362f93160ef3e563019081906106e3908261142d565b506020820151600182810191909155604083015160028301556060909201516003909101805460ff19169115159190911790556000547f0655289c4d9d7c45c2b83b18a45e3ce05f40710e413db2117ee045e2ab12cab291610744916114ed565b8484846040516107579493929190611500565b60405180910390a1505050565b61076c610f21565b6002546001600160a01b03166109a75747806107c15760405162461bcd60e51b81526020600482015260146024820152734e6f2066756e647320746f20776974686472617760601b6044820152606401610432565b60035460009082906001600160a01b0316156108d2576127106107e66101f48561152c565b6107f09190611543565b91506107fc82846114ed565b905081156108d2576003546040516000916001600160a01b03169084908381818185875af1925050503d8060008114610851576040519150601f19603f3d011682016040523d82523d6000602084013e610856565b606091505b505090508061089d5760405162461bcd60e51b8152602060048201526013602482015272119959481d1c985b9cd9995c8819985a5b1959606a1b6044820152606401610432565b6040518381527f69e27f80547602d16208b028c44d20f25956e1fb7d0f51d62aa02f392426f3719060200160405180910390a1505b60006108dc610c00565b6001600160a01b03168260405160006040518083038185875af1925050503d8060008114610926576040519150601f19603f3d011682016040523d82523d6000602084013e61092b565b606091505b505090508061096e5760405162461bcd60e51b815260206004820152600f60248201526e15da5d1a191c985dc819985a5b1959608a1b6044820152606401610432565b6040518281527f430648de173157e069201c943adb2d4e340e7cf5b27b1b09c9cb852f03d63b569060200160405180910390a150505050565b6002546040516370a0823160e01b81523060048201526000916001600160a01b0316906370a0823190602401602060405180830381865afa1580156109f0573d6000803e3d6000fd5b505050506040513d601f19601f82011682018060405250810190610a149190611565565b905060008111610a5d5760405162461bcd60e51b81526020600482015260146024820152734e6f2066756e647320746f20776974686472617760601b6044820152606401610432565b60035460009082906001600160a01b031615610af157612710610a826101f48561152c565b610a8c9190611543565b9150610a9882846114ed565b90508115610af157600354600254610abd916001600160a01b03918216911684610f53565b6040518281527f69e27f80547602d16208b028c44d20f25956e1fb7d0f51d62aa02f392426f3719060200160405180910390a15b610b0f610afc610c00565b6002546001600160a01b03169083610f53565b6040518181527f430648de173157e069201c943adb2d4e340e7cf5b27b1b09c9cb852f03d63b5690602001610757565b565b610b49610f21565b610b3f6000610f89565b610b5b610f21565b6000548110610b9b5760405162461bcd60e51b815260206004820152600c60248201526b24b73b30b634b2103a34b2b960a11b6044820152606401610432565b60008181548110610bae57610bae6113a0565b60009182526020822060036004909202010154815460ff90911615919083908110610bdb57610bdb6113a0565b60009182526020909120600490910201600301805460ff191691151591909117905550565b7f9016d09d72d40fdae2fd8ceac6b6234c7706214fd39c1cd1e609a0528c199300546001600160a01b031690565b6000610c38610ffa565b805490915060ff600160401b820416159067ffffffffffffffff16600081158015610c605750825b905060008267ffffffffffffffff166001148015610c7d5750303b155b905081158015610c8b575080155b15610ca95760405163f92ee8a960e01b815260040160405180910390fd5b845467ffffffffffffffff191660011785558315610cd357845460ff60401b1916600160401b1785555b610cdc88611025565b600280546001600160a01b03808a166001600160a01b03199283161790925560038054928916929091169190911790558315610d5257845460ff60401b19168555604051600181527fc7f505b2f371ae2175ee4913f4499e1f2633a7b5936321eed1cdaeb6115181d29060200160405180910390a15b5050505050505050565b60606000805480602002602001604051908101604052809291908181526020016000905b82821015610e6d5783829060005260206000209060040201604051806080016040529081600082018054610db390611366565b80601f0160208091040260200160405190810160405280929190818152602001828054610ddf90611366565b8015610e2c5780601f10610e0157610100808354040283529160200191610e2c565b820191906000526020600020905b815481529060010190602001808311610e0f57829003601f168201915b50505091835250506001828101546020808401919091526002840154604084015260039093015460ff16151560609092019190915291835292019101610d80565b50505050905090565b610e7e610f21565b6001600160a01b038116610ea857604051631e4fbdf760e01b815260006004820152602401610432565b610eb181610f89565b50565b6040516001600160a01b038481166024830152838116604483015260648201839052610f1b9186918216906323b872dd906084015b604051602081830303815290604052915060e01b6020820180516001600160e01b038381831617835250505050611036565b50505050565b33610f2a610c00565b6001600160a01b031614610b3f5760405163118cdaa760e01b8152336004820152602401610432565b6040516001600160a01b03838116602483015260448201839052610f8491859182169063a9059cbb90606401610ee9565b505050565b7f9016d09d72d40fdae2fd8ceac6b6234c7706214fd39c1cd1e609a0528c19930080546001600160a01b031981166001600160a01b03848116918217845560405192169182907f8be0079c531659141344cd1fd0a4f28419497f9722a3daafe3b4186f6b6457e090600090a3505050565b6000807ff0c57e16840df040f15088dc2f81fe391c3923bec73e23a9662efc9c229c6a005b92915050565b61102d6110a7565b610eb1816110cc565b600080602060008451602086016000885af180611059576040513d6000823e3d81fd5b50506000513d9150811561107157806001141561107e565b6001600160a01b0384163b155b15610f1b57604051635274afe760e01b81526001600160a01b0385166004820152602401610432565b6110af6110d4565b610b3f57604051631afcd79f60e31b815260040160405180910390fd5b610e7e6110a7565b60006110de610ffa565b54600160401b900460ff16919050565b60006020828403121561110057600080fd5b5035919050565b6000815180845260005b8181101561112d57602081850181015186830182015201611111565b506000602082860101526020601f19601f83011685010191505092915050565b6080815260006111606080830187611107565b60208301959095525060408101929092521515606090910152919050565b634e487b7160e01b600052604160045260246000fd5b6000806000606084860312156111a957600080fd5b833567ffffffffffffffff808211156111c157600080fd5b818601915086601f8301126111d557600080fd5b8135818111156111e7576111e761117e565b604051601f8201601f19908116603f0116810190838211818310171561120f5761120f61117e565b8160405282815289602084870101111561122857600080fd5b82602086016020830137600060208483010152809750505050505060208401359150604084013590509250925092565b80356001600160a01b038116811461126f57600080fd5b919050565b60006020828403121561128657600080fd5b61128f82611258565b9392505050565b6000806000606084860312156112ab57600080fd5b6112b484611258565b92506112c260208501611258565b91506112d060408501611258565b90509250925092565b60006020808301818452808551808352604092508286019150828160051b87010184880160005b8381101561135857603f1989840301855281516080815181865261132682870182611107565b838b0151878c0152898401518a8801526060938401511515939096019290925250509386019390860190600101611300565b509098975050505050505050565b600181811c9082168061137a57607f821691505b60208210810361139a57634e487b7160e01b600052602260045260246000fd5b50919050565b634e487b7160e01b600052603260045260246000fd5b634e487b7160e01b600052601160045260246000fd5b8082018082111561101f5761101f6113b6565b601f821115610f8457600081815260208120601f850160051c810160208610156114065750805b601f850160051c820191505b8181101561142557828155600101611412565b505050505050565b815167ffffffffffffffff8111156114475761144761117e565b61145b816114558454611366565b846113df565b602080601f83116001811461149057600084156114785750858301515b600019600386901b1c1916600185901b178555611425565b600085815260208120601f198616915b828110156114bf578886015182559484019460019091019084016114a0565b50858210156114dd5787850151600019600388901b60f8161c191681555b5050505050600190811b01905550565b8181038181111561101f5761101f6113b6565b8481526080602082015260006115196080830186611107565b6040830194909452506060015292915050565b808202811582820484141761101f5761101f6113b6565b60008261156057634e487b7160e01b600052601260045260246000fd5b500490565b60006020828403121561157757600080fd5b505191905056fea2646970667358221220ffee3de0c569ea13918b94af676a444983c143f493201f9c80b2b3fc7f09882e64736f6c63430008140033",
  "linkReferences": {},
  "deployedLinkReferences": {}
}